:020000040800F2
:10000000601A0020510100086D2F00081D31000802
:1000100021310008253100082931000800000000C6
:100020000000000000000000000000002D3100086A
:100030002F31000800000000313100083331000882
:100040006B0100086B0100086B0100086B010008E0
:100050006B0100086B0100086B01000839310008D2
:100060003B3100083D3100086B0100086B010008BE
:100070006B0100086B0100086B0100086B010008B0
:100080006B0100086B0100086B0100086B010008A0
:100090006B0100086B0100086B0100083731000894
:1000A0006B0100086B0100086B0100086B01000880
:1000B0006B010008353100086B0100086B01000876
:1000C0006B0100086B0100086B0100086B01000860
:1000D0006B0100086F2F0008E13000086B01000879
:1000E0006B0100086B0100086B0100086B01000840
:1000F0006B0100086B0100086B0100086B01000830
:100100006B0100086B0100086B0100086B0100081F
:100110006B0100086B0100086B0100086B0100080F
:100120006B0100086B0100086B0100086B010008FF
:10013000DFF80CD007F084F900480047391F0008A9
:10014000601A002030BF72B662B680F3088870472C
:100150000648804706480047FEE7FEE7FEE7FEE761
:10016000FEE7FEE7FEE7FEE7FEE7FEE7536A00086C
:10017000310100082DE9F0470024002500BF06E00A
:10018000FE49601C51F8200041F82400641C032C37
:10019000F6DBFB484069F94941F82400002407E0F8
:1001A000F64951F82400294606F0E6FC0546641C91
:1001B000042CF5DBF14A9168D06806F02FFD8046EB
:1001C000F0480168404606F02FFD06464FF0814199
:1001D000284606F05BFD8246EB480168504606F073
:1001E00023FD8046E548C168E848006806F01CFD2C
:1001F0008146414606F0C0FC0746314606F0BCFC8D
:10020000E3490860BDE8F0872DE9F04700240025A8
:1002100000BF06E0DF49601C51F8200041F82400CF
:10022000641C032CF6DBDC480068DA4941F8240042
:10023000002407E0D74951F82400294606F09CFC29
:100240000546641C042CF5DBD24A9168D06806F0A0
:10025000E5FC8046D1480168404606F0E5FC0646CC
:100260004FF08141284606F011FD8246CC480168D6
:10027000504606F0D9FC8046C648C168C9480068A7
:1002800006F0D2FC8146414606F076FC0746314630
:1002900006F072FCC4490860BDE8F0872DE9F0471C
:1002A0000024002500BF06E0C049601C51F8200072
:1002B00041F82400641C032CF6DBB1480069BB49FB
:1002C00041F82400002407E0B84951F824002946E9
:1002D00006F052FC0546641C042CF5DBB34A916819
:1002E000D06806F09BFC8046A6480168404606F0B0
:1002F0009BFC06464FF08141284606F0C7FC82462B
:10030000A1480168504606F08FFC8046A748C168A6
:100310009E48006806F088FC8146414606F02CFCA9
:100320000746314606F028FCA1490860BDE8F08781
:100330002DE9F0470024002500BF06E09D49601C20
:1003400051F8200041F82400641C032CF6DB9A4885
:100350000068984941F82400002407E0954951F8C5
:100360002400294606F008FC0546641C042CF5DB35
:10037000904A9168D06806F051FC80468748016831
:10038000404606F051FC06464FF08141284606F0F3
:100390007DFC824682480168504606F045FC804656
:1003A0008448C1687F48006806F03EFC81464146AB
:1003B00006F0E2FB0746314606F0DEFB7F490860A7
:1003C000BDE8F0872DE9F0470024002500BF06E0D6
:1003D0007B49601C51F8200041F82400641C032C68
:1003E000F6DB6748C068764941F82400002407E03E
:1003F000734951F82400294606F0BEFB0546641CEB
:10040000042CF5DB6E4A9168D06806F007FC804644
:100410005C480168404606F007FC06464FF0814103
:10042000284606F033FC824657480168504606F0DD
:10043000FBFB80466248C1685448006806F0F4FB44
:100440008146414606F098FB0746314606F094FB8C
:100450005C490860BDE8F0872DE9F04700240025DD
:1004600000BF06E05849601C51F8200041F8240004
:10047000641C032CF6DB55480068534941F82400FE
:10048000002407E0504951F82400294606F074FB87
:100490000546641C042CF5DB4B4A9168D06806F0D5
:1004A000BDFB80463D480168404606F0BDFB064660
:1004B0004FF08141284606F0E9FB82463848016842
:1004C000504606F0B1FB80463F48C1683548006899
:1004D00006F0AAFB8146414606F04EFB0746314630
:1004E00006F04AFB3A490860BDE8F0872DE9F0477D
:1004F0000024002500BF06E03649601C51F82000AA
:1005000041F82400641C032CF6DB1D488068314947
:1005100041F82400002407E02E4951F82400294620
:1005200006F02AFB0546641C042CF5DB294A916879
:10053000D06806F073FB804612480168404606F01A
:1005400073FB06464FF08141284606F09FFB82462A
:100550000D480168504606F067FB80461D48C1689B
:100560000A48006806F060FB8146414606F004FB3D
:100570000746314606F000FB17492FE090020020A5
:10058000B0010020D0000020CC000020C8000020D6
:10059000B800002080020020B4000020C400002029
:1005A000C0000020BC000020B0000020700200202D
:1005B000AC00002060020020A8000020A400002061
:1005C00050020020A0000020400200209C000020DB
:1005D0009800002030020020940000200860BDE850
:1005E000F0872DE9F0470024002500BF06E0FE4912
:1005F000601C51F8200041F82400641C032CF6DB39
:10060000FA480068F84941F82400002407E0F64958
:1006100051F82400294606F0AFFA0546641C042C64
:10062000F5DBF14A9168D06806F0F8FA8046F048A8
:100630000168404606F0F8FA06464FF08141284628
:1006400006F024FB8246EB480168504606F0ECFABF
:100650008046E548C168E848006806F0E5FA81464A
:10066000414606F089FA0746314606F085FAE34925
:100670000860BDE8F0872DE9F0470024002500BFA1
:1006800006E0DF49601C51F8200041F82400641C9A
:10069000032CF6DBDB484068D94941F824000024EC
:1006A00007E0D74951F82400294606F065FA0546C7
:1006B000641C042CF5DBD24A9168D06806F0AEFACF
:1006C0008046D1480168404606F0AEFA06464FF033
:1006D0008141284606F0DAFA8246CC480168504645
:1006E00006F0A2FA8046C648C168C948006806F00C
:1006F0009BFA8146414606F03FFA0746314606F02E
:100700003BFAC4490860BDE8F0872DE9F0470024B2
:10071000002500BF06E0C049601C51F8200041F8E8
:100720002400641C032CF6DBBC480068BA4941F87D
:100730002400002407E0B84951F82400294606F0B7
:100740001BFA0546641C042CF5DBB34A9168D0689B
:1007500006F064FA8046A6480168404606F064FA4E
:1007600006464FF08141284606F090FA8246A1489D
:100770000168504606F058FA8046A748C1689E486E
:10078000006806F051FA8146414606F0F5F9074641
:10079000314606F0F1F9A2490860BDE8F0872DE97D
:1007A000F0470024002500BF06E09E49601C51F878
:1007B000200041F82400641C032CF6DB91480068FB
:1007C000984941F82400002407E0964951F8240094
:1007D000294606F0D1F90546641C042CF5DB914A44
:1007E0009168D06806F01AFA80468748016840464A
:1007F00006F01AFA06464FF08141284606F046FAFE
:10080000824682480168504606F00EFA80468548C6
:10081000C1687F48006806F007FA8146414606F045
:10082000ABF90746314606F0A7F97F490860BDE8F5
:10083000F0872DE9F0470024002500BF06E07B4942
:10084000601C51F8200041F82400641C032CF6DBE6
:1008500077480068754941F82400002407E073498F
:1008600051F82400294606F087F90546641C042C3B
:10087000F5DB6E4A9168D06806F0D0F980465C4896
:100880000168404606F0D0F906464FF081412846FF
:1008900006F0FCF9824657480168504606F0C4F954
:1008A00080466248C1685448006806F0BDF9814638
:1008B000414606F061F90746314606F05DF95D49AB
:1008C0000860BDE8F0872DE9F047044689464FF0FF
:1008D000000A09EB841006F0ADFB0746564A574B59
:1008E00006F0B9FA054606F03FFC82465046BDE8E0
:1008F000F08753480079534908715148407948714D
:1009000008464079C978884214DD4E48C0784C4981
:1009100048714C48807808714A4880784949087085
:100920000846C078487008460079887008464079C3
:10093000C8703CE1434840794249C978884251D166
:10094000404800793F498978884205DC3D48007974
:100950003C498978884214D13A48C078384948716E
:1009600038488078087137488078364908700846DA
:10097000C078487008460079887008464079C87089
:1009800015E1304800792F4989788842D1DA2D481D
:1009900040792C49497888420EDD2A484079284917
:1009A00048712848007908712648407925494870DF
:1009B000084600790870FAE02248407921494978D0
:1009C000884247DA1F4840781D4948711D48007821
:1009D00008711C4840781B49C87008460078887028
:1009E000084631E072E00000200200209000002064
:1009F000C4000020C0000020BC0000208C000020AB
:100A000010020020B0010020D0000020CC00002007
:100A1000C800002088000020000200208400002080
:100A200080000020F00100207C000020E001002078
:100A30007800002074000020772D211FF46C963F71
:100A400026000020F2000020407948700846007916
:100A50000870ACE0FD484079FC49497888428FD164
:100A6000FA480079F9490978884205D0F7480079B1
:100A7000F649097888420EDDF4484079F449487116
:100A8000F24800790871F1484079F0494870084609
:100A9000007908708BE0ED480079EC4909788842CC
:100AA00089DAEA484078EA494871E84800780871EC
:100AB000E6484078E549C8700846007888700846DE
:100AC0004079487008460079087070E0DF48407946
:100AD000DE49C97888426ADADC484079DB494978DE
:100AE00088420EDDD9484079D9494871D748007904
:100AF0000871D6484079D549487008460079087091
:100B000055E0D2484079D1494978884214DACF4833
:100B10004078CF494871CD4800780871CB4840787B
:100B2000CA49C870084600788870084640794870FD
:100B30000846007908703AE0C4484079C3494978CA
:100B4000884234D1C1480079C0490978884205D02B
:100B5000BE480079BD49097888420EDDBB4840791E
:100B6000BB494871B94800790871B8484079B7491C
:100B7000487008460079087019E0B4480079B34914
:100B80000978884213DAB1484078B1494871AF48D2
:100B900000780871AD484078AC49C87008460078C4
:100BA0008870084640794870084600790870704798
:100BB000A8480079A8490871A648407948710846B4
:100BC0004079C978884214DDA348C078A1494871AA
:100BD000A14880780871A04880789F49087008462D
:100BE000C078487008460079887008464079C87017
:100BF0000AE1994840799849C978884277D196485E
:100C0000007995498978884205DC934800799249B2
:100C10008978884214D19048C0788E4948718E48AE
:100C2000807808718C4880788B4908700846C078B5
:100C3000487008460079887008464079C870E3E03B
:100C400085480079844989788842D1DA8248407998
:100C50008149497888420EDD7F4840797D49487155
:100C60007D48007908717C4840797B494870084686
:100C700000790870C8E07848407977494978884217
:100C800014DA7548407873494871734800780871E0
:100C9000714840787049C8700846007888700846E6
:100CA00040794870084600790870ADE06A4840799C
:100CB0006949497888429BD1674800796649097833
:100CC000884205D0644800796349097888420FDD7D
:100CD000614840795F4948715F48007908715E4812
:100CE00040795D4948700846007908708CE01AE048
:100CF00059480079584909788842A0DA564840781E
:100D00005449487154480078087153484078524912
:100D1000C8700846007888700846407948700846D0
:100D20000079087070E04C4840794B49C978884296
:100D30006ADA494840794849497888420EDD464890
:100D400040794449487144480079087142484079E3
:100D50004149487008460079087055E03E4840799E
:100D60003D494978884214DA3B484078394948710E
:100D7000394800780871384840783749C8700846C3
:100D800000788870084640794870084600790870F5
:100D90003AE03148407930494978884234D12E4888
:100DA00000792D490978884205D02B4800792A49D5
:100DB000097888420EDD284840792649487126483E
:100DC0000079087124484079234948700846007921
:100DD000087019E0204800791F490978884213DA21
:100DE0001D4840781B4948711B48007808711A4813
:100DF00040781949C87008460078887008464079DC
:100E00004870084600790870704714480079144902
:100E1000087112484079487108464079C97888427B
:100E200020DD0F48C0780D4948710D488078087161
:100E30000B4880780A4908700846C0784870084610
:100E40000079887008464079C87016E1F2000020E9
:100E50002600002020000020EC0000201A000020C6
:100E6000E6000020FE484079FD49C978884277D1E4
:100E7000FB480079FA498978884205DCF84800790E
:100E8000F7498978884214D1F548C078F549487106
:100E9000F34880780871F2488078F1490870084674
:100EA000C078487008460079887008464079C87054
:100EB000E3E0EB480079EA4989788842C5DAE848F6
:100EC0004079E749497888420EDDE5484079E549AF
:100ED0004871E34800790871E1484079E049487079
:100EE000084600790870C8E0DD484079DC49497857
:100EF000884214DADA484078DA494871D8480078EC
:100F00000871D7484078D649C8700846007888707C
:100F1000084640794870084600790870ADE0D0482E
:100F20004079CF49497888428FD1CD480079CC4962
:100F30000978884205D0CA480079C94909788842A9
:100F40000FDDC7484079C7494871C5480079087125
:100F5000C3484079C24948700846007908708CE05F
:100F60001AE0BF480079BE4909788842A0DABC4837
:100F70004078BC494871BA4800780871B848407850
:100F8000B749C870084600788870084640794870AC
:100F900008460079087070E0B1484079B049C978D6
:100FA00088426ADAAE484079AD49497888420EDD18
:100FB000AB484079AB494871A94800790871A84805
:100FC0004079A749487008460079087055E0A44860
:100FD0004079A3494978884214DAA1484078A14968
:100FE00048719F48007808719D4840789C49C870B6
:100FF00008460078887008464079487008460079AD
:1010000008703AE09648407995494978884234D149
:101010009348007992490978884205D09048007930
:101020008F49097888420EDD8D4840798D49487195
:101030008B48007908718A48407989494870084688
:101040000079087019E08648007985490978884256
:1010500013DA8348407883494871814800780871E1
:101060007F4840787E49C8700846007888700846F6
:101070004079487008460079087070477A480079CE
:101080007A49087178484079487108464079C978AA
:10109000884214DD7548C078734948717348807878
:1010A000087172488078714908700846C0784870A5
:1010B00008460079887008464079C87013E16B488B
:1010C00040796A49C978884277D168480079674988
:1010D0008978884205DC65480079644989788842C6
:1010E00014D16248C07860494871604880780871BE
:1010F0005E4880785D4908700846C07848700846A8
:101100000079887008464079C870ECE0574800794B
:10111000564989788842D1DA544840795349497808
:1011200088420EDD514840794F4948714F48007957
:1011300008714E4840794D4948700846007908705A
:10114000D1E04A48407949494978884214DA474809
:1011500040784549487145480078087143484078CF
:101160004249C8700846007888700846407948703F
:10117000084600790870B6E03C4840793B49497818
:1011800088429BD13948007938490978884205D08E
:10119000364800793549097888420FDD334840796F
:1011A00031494871314800790871304840792F49F8
:1011B000487008460079087095E01AE02B480079DD
:1011C0002A4909788842A0DA284840782649487197
:1011D000264800780871254840782449C870084698
:1011E0000078887008464079487008460079087091
:1011F00079E01E4840791D49C978884273DA1B4856
:1012000040791A49497888420EDD184840791649D4
:10121000487116480079087114484079134948709C
:101220000846007908705EE0104840790F49497817
:1012300088421DDA0D4840780B4948710B48007808
:1012400008710A4840780949C870084600788870D3
:1012500008464079487008460079087043E000006D
:10126000E60000201A00002014000020E00000200A
:10127000FE484079FD494978884234D1FB480079DD
:10128000FA490978884205D0F8480079F749097881
:1012900088420EDDF5484079F5494871F3480079F8
:1012A0000871F2484079F1494870084600790870A1
:1012B00019E0EE480079ED490978884213DAEB48E5
:1012C0004078EB494871E94800780871E748407870
:1012D000E649C8700846007888700846407948702A
:1012E0000846007908707047E2480079E2490871C1
:1012F000E0484079487108464079C978884214DD51
:10130000DD48C078DB494871DB4880780871DA48ED
:101310008078D94908700846C07848700846007936
:10132000887008464079C8700AE1D3484079D249AC
:10133000C978884277D1D0480079CF4989788842E6
:1013400005DCCD480079CC498978884214D1CA4857
:10135000C078C8494871C84880780871C648807804
:10136000C54908700846C0784870084600798870FA
:1013700008464079C870E3E0BF480079BE498978E3
:101380008842D1DABC484079BB49497888420EDDB1
:10139000B9484079B7494871B74800790871B648EB
:1013A0004079B5494870084600790870C8E0B248ED
:1013B0004079B1494978884214DAAF484078AD495C
:1013C0004871AD4800780871AB484078AA49C870A8
:1013D00008460078887008464079487008460079C9
:1013E0000870ADE0A4484079A349497888429BD170
:1013F000A1480079A0490978884205D09E48007923
:101400009D49097888420FDD9B4840799949487188
:10141000994800790871984840799749487008467A
:10142000007908708CE01AE09348007992490978B5
:101430008842A0DA904840788E4948718E480078FA
:1014400008718D4840788C49C870084600788870CB
:1014500008464079487008460079087070E0864870
:1014600040798549C97888426ADA83484079824957
:10147000497888420EDD804840797E4948717E482F
:10148000007908717C4840797B49487008460079AA
:10149000087055E07848407977494978884214DAED
:1014A00075484078734948717348007808717248EC
:1014B00040787149C87008460078887008464079BD
:1014C00048700846007908703AE06B4840796A49EC
:1014D0004978884234D16848007967490978884258
:1014E00005D0654800796449097888420EDD624874
:1014F0004079604948716048007908715E484079D8
:101500005D49487008460079087019E05A4800792A
:1015100059490978884213DA574840785549487143
:10152000554800780871544840785349C8700846B7
:10153000007888700846407948700846007908703D
:1015400070474E4800794E4908714C4840794871BF
:1015500008464079C978884214DD4948C07847492F
:101560004871474880780871454880784449087038
:101570000846C07848700846007988700846407967
:10158000C87017E13E4840793D49C978884279D111
:101590003B4800793A498978884205DC3848007927
:1015A00037498978884214D13548C0783349487121
:1015B000334880780871324880783149087008468D
:1015C000C078487008460079887008464079C8702D
:1015D000F0E02B4800792A4989788842D1DA2848F6
:1015E00040792749497888420EDD254840792349CA
:1015F0004871234800790871214840792049487092
:10160000084600790870D5E01D4840791C494978A2
:10161000884214DA1A484078184948711848007806
:101620000871174840781649C870084600788870D5
:10163000084640794870084600790870BAE01048BA
:1016400040790F49497888429BD10D4800790C496F
:101650000978884205D00A48007909490978884202
:101660001CDD07484079054948710CE0E000002086
:10167000140000200E000020DA00002008000020E6
:10168000D400002025E0FE4800790871FC4840792C
:10169000FB4948700846007908708BE0F8480079EB
:1016A000F7490978884293DAF5484078F549487156
:1016B000F34800780871F2484078F149C87008464C
:1016C00000788870084640794870084600790870AC
:1016D00070E0EB484079EA49C97888426ADAE8481C
:1016E0004079E749497888420EDDE5484079E54987
:1016F0004871E34800790871E1484079E049487051
:1017000008460079087055E0DD484079DC494978A1
:10171000884214DADA484078DA494871D8480078C3
:101720000871D7484078D649C87008460078887054
:101730000846407948700846007908703AE0D04879
:101740004079CF494978884234D1CD480079CC4995
:101750000978884205D0CA480079C9490978884281
:101760000EDDC7484079C7494871C54800790871FE
:10177000C3484079C249487008460079087019E0AA
:10178000BF480079BE490978884213DABC484078DE
:10179000BC494871BA4800780871B9484078B849DE
:1017A000C870084600788870084640794870084636
:1017B00000790870704710B50120B34908601EE138
:1017C0000420B24908604CE0B0480078801FC1B2E4
:1017D000AF48007804F0BCFAAA49AC4A12688854B1
:1017E000AA480078801FC1B2AA48007804F0B0FA75
:1017F000A949A64A12688854A4480078801FC1B23B
:10180000A348007804F0A4FAA449A04A12688854B6
:101810009E480078801FC1B29E48007804F098FA74
:101820009F499A4A1268885498480078801FC1B22C
:101830009748007804F08CFA9A49944A12688854C0
:1018400092480078801FC1B29248007804F080FA74
:1018500095498E4A126888548C480068401C8B4910
:1018600008608A4800680628AED3864800798F4908
:10187000854A126841F82200824840798C498D4A95
:10188000126841F8220089487F49096850F8211000
:101890007D480068401E854A52F8200001441046E9
:1018A000794A126840F8221081488249096850F844
:1018B000211080480068401E7D4A52F820000144F3
:1018C00010467C4A126840F82210734800797A4921
:1018D0006D4A126841F822006F4841797748754A8D
:1018E000126840F8221074486749096850F82110BE
:1018F00065480068401E704A52F8200008441146AE
:10190000614A126841F822006C486A49096850F837
:10191000211068480068401E684A52F820000144BF
:101920001046644A126840F822105C480079644905
:10193000554A126841F822005848407961495D4A89
:10194000126841F822005E484F49096850F821109A
:101950004D480068401E5A4A52F820000144104683
:10196000494A126840F8221056485249096850F80E
:10197000211050480068401E524A52F82000084486
:1019800011464C4A126841F82200454801794E48F8
:101990003D4A126840F82210414840794B49454A77
:1019A000126841F8220048483749096850F8211068
:1019B00035480068401E444A52F820000844114649
:1019C000314A126841F8220040483A49096850F803
:1019D000211038480068401E3C4A52F82000084454
:1019E0001146344A126841F8220032480068401C0F
:1019F0003049086024480068401C23490860224898
:101A0000006864287FF7DCAE2848D0F89001642194
:101A1000B0FBF1F01A4908702548D0F89001642114
:101A2000B0FBF1F0164948702048D0F890016421CD
:101A3000B0FBF1F0124988701D48D0F89001642184
:101A4000B0FBF1F00E49C8701B48D0F8900164213A
:101A5000B0FBF1F01E4908701848D0F890016421DD
:101A6000B0FBF1F01A4948701348D0F89001642196
:101A7000B0FBF1F0164988701048D0F8900129E0C9
:101A8000D400002008000020F800002038000020CA
:101A900004000020050000200E000020140000209B
:101AA0001A0000202000002026000020A0020020B4
:101AB00034040020FC000020C80500205C07002042
:101AC000F0080020840A0020180C0020AC0D002033
:101AD000DA0000206421B0FBF1F0FA49C870FA483E
:101AE000D0F890016421B0FBF1F0F8490870F84893
:101AF000D0F890016421B0FBF1F0F4494870F2484D
:101B0000D0F890016421B0FBF1F0F0498870F04802
:101B1000D0F890016421B0FBF1F0EC49C870ED48B9
:101B2000D0F890016421B0FBF1F0EB490870EB486C
:101B3000D0F890016421B0FBF1F0E7494870E54826
:101B4000D0F890016421B0FBF1F0E3498870E348DC
:101B5000D0F890016421B0FBF1F0DF49C870E04893
:101B6000D0F890016421B0FBF1F0DE490870DE4846
:101B7000D0F890016421B0FBF1F0DA494870D84800
:101B8000D0F890016421B0FBF1F0D6498870D648B6
:101B9000D0F890016421B0FBF1F0D249C870D3486D
:101BA000D0F890016421B0FBF1F0D1490870D14820
:101BB000D0F890016421B0FBF1F0CD494870CB48DA
:101BC000D0F890016421B0FBF1F0C9498870C94890
:101BD000D0F890016421B0FBF1F0C549C870C64847
:101BE0000078C6490871C44840784871B548007803
:101BF000C3490871B34840784871B4480078C14976
:101C00000871B24840784871B3480078BE490871FD
:101C1000B14840784871B3480078BC490871B14870
:101C200040784871B2480078B9490871B0484078A6
:101C3000487110BDB748806940F00800B549886117
:101C4000B548006820F00F00B349086008460068F6
:101C500040F003000860B0480C30006840F001001C
:101C6000AD490C310860704708B54FF4C06004F00E
:101C70000FFC26208DF8000000208DF801008DF863
:101C8000020001208DF80300684604F006FC4FF4C2
:101C9000C06004F0FDFB25208DF8000000208DF8C9
:101CA000010001208DF802008DF80300684604F061
:101CB000F4FB08BD2DE9FF5F05460E46300105F037
:101CC000B4F98146954905FB01F005F0AEF982466D
:101CD000494604F0DBFF0746384605F0D5F984B2E3
:101CE000204605F0A2F98346394604F09AFF824661
:101CF0004FF0834104F098FF814605F0C5F9804616
:101D00004FF6FF7000EA041404EB080084B2814827
:101D1000806940F004007F4988610846806940F48A
:101D2000804088617E48006820F47F607C490860BC
:101D30000846006840F40B6008607648C06840F4CC
:101D400080407449C8600846C06820F48040C8607C
:101D500074480480001D008842F20C010843714958
:101D6000091D08804FF4E13000900020ADF8040018
:101D7000ADF80600ADF80800ADF80C000C20ADF889
:101D80000A0069466748083804F033FC012240F233
:101D900025516448083804F0C4FC01216148083822
:101DA00004F0B3FC40215F48083804F096FD5E481B
:101DB000009069465D4804F01CFC012240F2255168
:101DC0005A4804F0AEFC0121584804F09EFC402122
:101DD000564804F082FDBDE8FF9F08B58020ADF8AD
:101DE000000003208DF8020010208DF803006946E2
:101DF0004F4804F02DF80820ADF8000003208DF8BE
:101E0000020048208DF8030069464A4804F020F893
:101E10004FF40070ADF8000003208DF80200182088
:101E20008DF8030069463E48001F04F011F84FF496
:101E30008060ADF8000004208DF803006946384842
:101E4000001F04F005F80420ADF8000003208DF811
:101E5000020018208DF8030069463148001F03F086
:101E6000F7FF0820ADF8000004208DF80300694654
:101E70002B48001F03F0ECFF80212D4804F097F859
:101E800008BD10B5092003F006FF0121042004F06D
:101E90009BFA0121402004F097FA0121880304F005
:101EA00093FA0121480404F09CFA0121084604F049
:101EB0008BFA0121102004F087FA0121202004F080
:101EC00083FA10BDDA000020F0080020E0000020B6
:101ED000840A0020180C0020E6000020AC0D002031
:101EE000400F0020EC000020D410002068120020D9
:101EF000F2000020FC130020D40000200800002085
:101F00000E000020140000201A00002020000020F5
:101F10002600002000100240000C014040420F004B
:101F2000040801400838014080841E00004400403D
:101F3000001401400018014098B000201690802045
:101F4000FE4908709020FE4908709820FD490870ED
:101F5000A020FD490870A820FC490870B020FC4969
:101F60000870FFF78EFFFFF738FF482000F093FF5F
:101F70004FF4E1314820FFF79DFEFFF775FEFFF7B4
:101F800059FE03F0E1FEF348006801461590F2485F
:101F9000006804F043FEF1490860EE48006801461D
:101FA0001590ED48006804F039FEEC494860E948B6
:101FB000006801461590E848006804F02FFEE749E4
:101FC0008860E448006801461590E348006804F022
:101FD00025FEE249C860DF48406801461590E048A8
:101FE000006804F01BFEDF490860DA4840680146DB
:101FF0001590DB48006804F011FEDA494860D548C6
:10200000406801461590D648006804F007FED5499F
:102010008860D048406801461590D148006804F0B7
:10202000FDFDD049C860CB48806801461590CE4878
:10203000006804F0F3FDCD490860C6488068014699
:102040001590C948006804F0E9FDC8494860C148D6
:10205000806801461590C448006804F0DFFDC3495C
:102060008860BC48806801461590BF48006804F04D
:10207000D5FDBE49C860B748C06801461590BC4848
:10208000006804F0CBFDBB490860B248C068014657
:102090001590B748006804F0C1FDB6494860AD48E6
:1020A000C06801461590B248006804F0B7FDB14918
:1020B0008860A848C06801461590AD48006804F0E3
:1020C000ADFDAC49C860A348006901461590AA4817
:1020D000006804F0A3FDA94908609E480069014614
:1020E0001590A548006804F099FDA44948609948F6
:1020F000006901461590A048006804F08FFD9F49D3
:10210000886094480069014615909B48006804F077
:1021100085FD9A49C8608F484069014615909848E6
:10212000006804F07BFD974908608A4840690146D1
:1021300015909348006804F071FD92494860854805
:102140004069014615908E48006804F067FD8D498E
:10215000886080484069014615908948006804F00D
:102160005DFD8849C86001F099FC012001F0C9FAC1
:102170000021072001F093FA642000F0A8FE072058
:1021800001F039FC642000F0A2FE0121072001F0DB
:1021900086FA642000F09BFE7B49072001F0E9FCF1
:1021A000642000F094FE794802F048FAFFF703FB40
:1021B000F1E30821764803F0DEFE002855D101F056
:1021C00079FC012001F09DFA724873490860734858
:1021D0004860734888607348C860734808617348F2
:1021E000486141E07248006815906B48006814909F
:1021F000159904F013FD6F4908606D48406815900B
:10220000654840681490159904F0B6FC6949486027
:10221000674880681590604880681490159904F0AC
:10222000ABFC644988606248C06815905A48C06831
:102230001490159904F0A0FC5E49C8605C480069E0
:102240001590554800691490159904F095FC59496A
:1022500008615748406915904F4840691490159996
:1022600004F08AFC53494861BCE71021484803F058
:1022700082FE00289CD1FDE3042016904DE01698C4
:10228000801FC0B2014615902C48007803F060FD15
:10229000494A169950541698801FC0B201461590AD
:1022A0002748007803F054FD444A16995054169874
:1022B000801FC0B2014615902248007803F048FD07
:1022C00001463F4A169811541698801FC0B2014625
:1022D00015901D48007803F03BFD3A4A169950547A
:1022E0001698801FC0B2014615901848007803F078
:1022F0002FFD354A169950541698801FC0B20146DA
:1023000015901348007803F023FD01462F4A1698D4
:1023100011541698401CC0B2169016980628AEDBD1
:10232000FFF70FF9FEF7E0FFFEF7A8FEFEF76DFDE1
:10233000FEF73EFCFEF7DDFA1F4849E000000020F2
:102340000100002002000020030000200400002003
:10235000050000204000002058000020E00100207F
:102360005C0000200002002060000020200200200D
:10237000640000204002002068000020600200206D
:102380006C000020800200200000C84250010020A4
:102390000018014000003443800100200000154374
:1023A00000005E430000B04200001E4300002543D1
:1023B000C415002098010020080000200E00002015
:1023C000140000201A000020200000202600002019
:1023D00040791090FE4800790F901099FEF773FA3B
:1023E000119004F07EFE4FF06632FA4BCDE91201F7
:1023F00004F02BFDCDE9140104F0B6FEF6490860A7
:10240000F64840791090F54800790F901099FEF742
:102410005AFA119004F065FE4FF03332F04BCDE9DB
:10242000120104F012FDCDE9140104F09DFEEA4909
:102430004860EC4840791090EA4800790F90109974
:10244000FEF741FA119004F04CFEE74AE74BCDE964
:10245000120104F0FAFCCDE9140104F085FEDE4916
:102460008860E34840791090E14800790F90109916
:10247000FEF729FA119004F034FE4FF06632DD4B7E
:10248000CDE9120104F0E1FCCDE9140104F06CFE89
:10249000D149C860D84840791490D7480079139042
:1024A0001499FEF710FAD549159004F0B7FBCA4904
:1024B0000861D34840791090D14800790F90109965
:1024C000FEF701FA119004F00CFECE4ACE4BCDE996
:1024D000120104F0BAFCCDE9140104F045FEBE4936
:1024E000486108464069099004F0FBFDCDE91401FC
:1024F000B9480069099004F0F4FDCDE91201B6482D
:10250000C068099004F0EDFDCDE91001B248806883
:10251000099004F0E6FDCDE90E01AF48406809904E
:1025200004F0DFFDCDE90C01AB480068099004F030
:10253000D8FDCDE90A01DDE91401CDE90801DDE9A5
:102540001201CDE90601DDE91001CDE90401DDE963
:102550000E01CDE90201DDE90C01CDE90001ABA0DE
:10256000DDE90A2304F0FAFFAD48006804F0B9FD84
:1025700000224FF08043CDE90A0105F0F9FCCDE9D6
:102580000E019548006801460A90A648006804F0CC
:102590004BFB0B9004F0A5FDCDE90C01DDE90E230A
:1025A00004F059FCA04AA14BCDE9100104F053FC02
:1025B00000229F4BCDE9120104F0BFFCCDE91401CC
:1025C00004F0D2FD9B4908609548006804F089FD3D
:1025D00000224FF08043CDE90A0105F0C9FCCDE9A6
:1025E0000E017D48406801460A908E48006804F05C
:1025F0001BFB0B9004F075FDCDE90C01DDE90E230A
:1026000004F029FC884A894BCDE9100104F023FC31
:102610000022874BCDE9120104F08FFCCDE91401B3
:1026200004F0A2FD844908607D48006804F059FD6B
:1026300000224FF08043CDE90A0105F099FCCDE975
:102640000E016548806801460A907648006804F0EB
:10265000EBFA0B9004F045FDCDE90C01DDE90E230A
:1026600004F0F9FB704A714BCDE9100104F0F3FB63
:1026700000226F4BCDE9120104F05FFCCDE914019B
:1026800004F072FD6D4908606548006804F029FD9A
:1026900000224FF08043CDE90A0105F069FCCDE945
:1026A0000E014D48C06801460A905E48006804F07B
:1026B000BBFA0B9004F015FDCDE90C01DDE90E230A
:1026C00004F0C9FB584A594BCDE9100104F0C3FB93
:1026D0000022574BCDE9120104F02FFCCDE9140183
:1026E00004F042FD564908604D48006804F0F9FCCA
:1026F00000224FF08043CDE90A0105F039FCCDE915
:102700000E013548006901460A904648006804F009
:102710008BFA0B9004F0E5FCCDE90C01DDE90E230A
:1027200004F099FB404A414BCDE9100104F093FBC2
:1027300000223F4BCDE9120104F0FFFBCDE914016B
:1027400004F012FD3F4908603548006804F0C9FCF8
:1027500000224FF08043CDE90A0105F009FCCDE9E4
:102760000E011D48406901460A902E48006804F099
:102770005BFA0B9004F0B5FCCDE90C01DDE90E230A
:1027800004F069FB284A294BCDE9100104F063FBF2
:102790000022274BCDE9120104F0CFFBCDE9140153
:1027A00004F0E2FC284908602848006801461590BA
:1027B0002048006804F0FEFC53D22448006801461B
:1027C00015901C48006804F029FA2149086041E08E
:1027D0000800002066B27440C80100200E000020EE
:1027E00033A35D4014000020D7A3703D0A576D400D
:1027F0001A00002066D27340200000200000A6438B
:102800002600002048E17A14AE475B40256620256B
:10281000662025662025662025662025660D0A008F
:102820003C00002070000020F1D4C853FB21094077
:1028300000806640580000205C00002060000020FE
:1028400064000020680000206C0000204000002090
:1028500078000020FDF7EDFFF8480068F8490860AF
:102860005DE0F848006880F000401590F648016887
:10287000159804F09FFC16D2F348006880F00040E1
:102880001590F048006801461490159804F0C6F9B8
:10289000EE490860FDF7CDFFE848006880F0004091
:1028A000E74908603BE0012000F06AFEE849086063
:1028B000084600681590E74800681490159904F0E0
:1028C000ADF9E549086008460068139004F009FC7A
:1028D0000022E24BCDE9140104F02EFC0ED2DE48BA
:1028E0000068139004F0FDFB0022DD4BCDE91401DC
:1028F00004F00AFC02D20020D7490860FDF74FFF20
:10290000D54800680021159004F04AFC03D100204E
:10291000CB49086003E0D3480068C9490860C9484A
:10292000406801461590D048006804F043FC10D27E
:10293000C448406801461590CB48006804F06EF921
:10294000CA490860FDF7E1FEC9480068BC49486013
:1029500056E0BC48406880F000401590C2480168CD
:10296000159804F027FC17D2BF48006880F000409B
:102970001590B448406801461490159804F04EF93B
:10298000BA490860FDF7C1FEB948006880F0004010
:10299000AB49486034E034E2022000F0F1FDAC497C
:1029A0004860084640681590AA48406814901599F8
:1029B00004F034F9A8494860084640684FF04041A7
:1029C000159004F0F7FB0AD2A34840684FF080410D
:1029D000159004F0E5FB02D200209F494860FDF706
:1029E0004AFE9D4840680021159004F0D9FB03D1B0
:1029F00000209349486003E09E4800689049486081
:102A000090488068014615909B48006804F0D2FB0E
:102A100010D28C488068014615909748006804F0F1
:102A2000FDF896490860FDF7DCFD9548006884498B
:102A3000886056E08348806880F0004015908E489A
:102A40000168159804F0B6FB18D28B48006880F036
:102A5000004015907B48806801461490159804F05A
:102A6000DDF886490860FDF7BCFD8548006880F008
:102A7000004000E0C3E17249886032E0032000F0CA
:102A80007FFD7349886008468068159071488068AA
:102A90001490159904F0C2F86F4988600846806860
:102AA0007849159004F086FB0AD26B4880684FF095
:102AB0007E51159004F074FB02D2002066498860B4
:102AC000FDF714FD644880680021159004F068FB50
:102AD00003D100205A49886003E06B4800685849D8
:102AE00088605848C068014615906848006804F03E
:102AF00061FB10D25348C0680146159063480068D6
:102B000004F08CF862490860FDF7A6FC6148006893
:102B10004B49C86055E04B48C06880F000401590B4
:102B20005A480168159804F045FB16D257480068CA
:102B300080F0004015904348C068014614901598F5
:102B400004F06CF852490860FDF786FC51480068B3
:102B500080F000403A49C86033E0042000F010FDE6
:102B60003B49C8600846C06815903A48C068149050
:102B7000159904F053F83849C8600846C0684FF00A
:102B80004041159004F016FB0AD23348C0684FF05C
:102B90008041159004F004FB02D200202E49C86049
:102BA000FDF710FC2C48C0680021159004F0F8FADD
:102BB00003D100202249C86003E03748006820495B
:102BC000C86020480069014615903448006804F048
:102BD000F1FA10D21B480069014615902F48006891
:102BE00004F01CF82E490860FDF7A2FB2D4801688F
:102BF000134801618BE01348006980F00040159094
:102C000026480168159804F0D5FA4DD2234800688B
:102C100080F0004015900B4800690146149015980B
:102C200003F0FCFF1E490860FDF782FB1D480068A9
:102C300080F000400249086169E000007400002053
:102C4000680100204000002058000020780000208B
:102C50003801002050010020B0010020000004C015
:102C6000000004407C0000205C0000208400002064
:102C700080000020880000206000002090000020DC
:102C80008C000020000080BF940000206400002021
:102C90009C00002098000020A00000206800002078
:102CA000A8000020A4000020052000F069FC56497F
:102CB00008610846006915905448006914901599F8
:102CC00003F0ACFF5249086108460069514915906C
:102CD00004F070FA0AD24E4800694FF07E51159008
:102CE00004F05EFA02D2002149480161FDF7D6FAEC
:102CF000474800690021159004F052FA03D10020E2
:102D00004549086103E04548006843490861444873
:102D10004069014615904348006804F04BFA10D210
:102D20003F484069014615903E48006803F076FF31
:102D30003D490860FDF768FA3C480068364948613B
:102D40005DE03748406980F00040159035480168E3
:102D5000159804F02FFA16D23248006880F000402F
:102D600015902F48406901461490159803F056FFBE
:102D70002D490860FDF748FA2C48006880F00041B2
:102D8000254841613BE0062000F0FAFB1E494861FE
:102D90000846406915901D4840691490159903F044
:102DA0003DFF1B49486108464069139004F099F9BA
:102DB00000221F4BCDE9140104F0BEF90ED21448D5
:102DC0004069139004F08DF900221A4BCDE91401EB
:102DD00004F09AF902D200200D494861FDF7CAF9C2
:102DE0000B4840690021159004F0DAF903D1002066
:102DF0000949486103E01048006807494861FFF746
:102E00003BBAFFF7D6B9000038010020500100207E
:102E1000B0010020000080BF68010020AC0000204D
:102E2000400000206C000020B4000020B000002012
:102E30000000F8BF0000F83FB800002010B503F014
:102E400055F94FF4803003F071F903F0AEF9012821
:102E500020D1002003F0EFF9002003F0FEF94FF439
:102E6000806003F0F1F94FF4E0114FF4803003F08B
:102E7000C5F9012003F0CEF900BF392003F079F93C
:102E80000028FAD0022003F0C8F900BF03F0CEF901
:102E90000828FBD110BD4FF0E021096921F00401A1
:102EA0004FF0E0221161C21700EB5272C2F3C70269
:102EB0002B4B1A701946097801EB4102C2EBC11184
:102EC0004FF6FF7202EAC101264A1180704701469F
:102ED000234A12784A434FF0E0235A6100229A6154
:102EE00001221A6100BF4FF0E022106900F00102D8
:102EF0001AB100F48032002AF5D000224FF0E0230E
:102F00001A619A6170470146164A12884A434FF087
:102F1000E0235A6100229A6101221A6100BF4FF03A
:102F2000E022106900F001021AB100F48032002A98
:102F3000F5D000224FF0E0231A619A61704770B516
:102F400004460D46E1B2084803F04CFC00BF802166
:102F5000054803F0B5FC0028F9D0204670BD0000FC
:102F600001010020020100200038014070472DE9D6
:102F7000F04F87B040F22551714803F0B7FC0028AC
:102F80007DD06F4803F032FCC6B26E48007832281C
:102F900008DA6D486B49097846546A480078401C45
:102FA000684908700A2E6AD100250024A346A1466C
:102FB0004FF07E5A1821654803F0D3FD7BE062484C
:102FC000405D202807D1601CC4B24FF0000BD946E9
:102FD0004FF07E5A6DE05C48405D2D2802D14FF0E5
:102FE000010966E05848405D30285CDB5648405D8A
:102FF000392858DCB9F1000F07D0544850F82400A4
:1030000080F00040514941F82400BBF1000F15D079
:103010004E4951F82400514603F006FE4B4941F851
:103020002400504604F05DF80022494BCDE904012C
:1030300003F011FF074604F097F88246434951F820
:10304000240004F04EF80022414BCDE9000103F0CA
:1030500002FF074688463C49495DA1F1300003F074
:10306000E9FF3A464346CDE9020103F04DFECDE9C2
:10307000040104F079F8354941F8240000E027E024
:1030800051F82400514603F001FE304941F8240074
:10309000B9F1000F0DD0084650F8240080F0004030
:1030A00041F8240005E02848405D2E2801D14FF06A
:1030B000010B681CC5B2234800788542FFF67FAF3C
:1030C0003221214803F04DFD00201E49087000BF49
:1030D00040F225511A4803F033FC07B0BDE8F08FE9
:1030E00010B540F225511B4803F000FC80B119488F
:1030F00003F07CFBC4B218480078802808DA17482F
:1031000015490978445414480078401C1249087045
:1031100040F225510F4803F013FC10BD00BFFEE73D
:1031200000BFFEE700BFFEE700BFFEE77047704745
:10313000704770477047704770477047704700008E
:10314000003801400401002090150020C415002023
:10315000000024400044004005010020DC15002050
:103160008648806940F0100084498861844800687E
:10317000C0F313008249086008460068814908438B
:103180007F4908607E480C30006840F0E0007C49D0
:103190000C310860704710B57948006820F0704025
:1031A000774908600846006840F0405008600120F8
:1031B000754908607549C1F89801FFF788FE00203D
:1031C000714908600120FFF782FE00206F49C1F8B5
:1031D000980110BD10B56A48006820F07040684939
:1031E00008600846006840F04050086000206649CA
:1031F000091F08606549C1F89C010120FFF767FEBF
:1032000001206149091F0860FFF761FE01205F4945
:10321000C1F89C0110BD10B500245948006820F089
:103220007040574908600846006840F00040086058
:103230000120554908605549C1F8980107E0601C14
:10324000C4B2FA2C03DDFFF7C5FF012010BD4E48C4
:10325000803800680028F2D14B49091F086000BF80
:10326000F4E700204849091F08604548006820F03D
:103270007040434908600846006840F040500860CC
:1032800000204249C1F89C0101203F49091F086004
:1032900000203E49C1F89801704700203A49091FB3
:1032A00008603748006820F07040354908600846DB
:1032B000006840F04050086001203449C1F89C018A
:1032C0003149091F086000203049C1F89801704752
:1032D0002B4A126822F07042294B1A601A46126873
:1032E00042F040521A600022274B1B1F1A60002137
:1032F0000EE0C209244B1A604206100E0122234B35
:10330000C3F898210022204B1B1F1A604A1CD1B21F
:103310000829EEDB704770B50546002418480068A0
:1033200020F07040164908600846006840F00040F0
:103330000860002617E000201349091F08600220DA
:10334000FFF7C5FD01201149C1F898016006040E80
:103350000D488038006808B1601CC4B20120FFF736
:10336000B6FD701CC6B2082EE5DB15B9FFF795FF58
:1033700001E0FFF776FF204670BD0000001002401C
:10338000000C0140000030339C812142008021422A
:1033900070B505460E460020FE4908708021FE48A3
:1033A00002F003FE00240CE000BF8021FB4803F084
:1033B00087FA0028F9D0295DF84803F013FA601C59
:1033C000C4B2B442F0DB00BF4021F44803F078FA05
:1033D0000028F9D08021F04802F0E9FD70BD70B5F9
:1033E000054600249620FFF772FD00BF04E0EC487C
:1033F000005D2855601CC4B2E64800788442F6DBC4
:103400000020E449087070BD30B502460B4600202C
:1034100000210BE0555C85EA2025ECB2E14D35F842
:10342000145085EA0025A8B24D1CA9B29942F1DBDF
:1034300030BD30B589B004460025FF208DF814005A
:103440008DF81500FD208DF8160000208DF817006E
:103450008DF8184007208DF8190000208DF81A000B
:1034600002208DF81B0092208DF81C0000208DF8A2
:103470001D0001208DF81E0000208DF81F000C217A
:1034800005A8FFF7C1FF0546E8B28DF82000280A1D
:103490008DF821000E2105A8FFF77AFF6846FFF797
:1034A0009EFF9DF809209DF80810BFA004F056F873
:1034B0009DF8090009B030BD2DE9F04F87B0814675
:1034C0008A464FF0000BBE49504603F073FE02D20D
:1034D000DFF8ECA206E00021504603F061FE01D2C5
:1034E0004FF0000A504603F0FCFD07460022B54BA2
:1034F00003F023FD05460022B34B03F0ACFCCDE9FD
:10350000000103F0D5FD0446FF208DF808008DF87A
:103510000900FD208DF80A0000208DF80B008DF8C1
:103520000C9009208DF80D0000208DF80E0003206E
:103530008DF80F0074208DF8100000208DF8110018
:10354000E0B28DF81200200A8DF81300200C8DF8DF
:103550001400200E8DF815000E2102A8FFF754FF6D
:1035600083460BF0FF008DF816004FEA1B208DF804
:103570001700102102A8FFF70BFF07B0BDE8F08F7E
:103580002DE9F04F8FB082464FF0000BFF208DF8F1
:103590002C008DF82D00FD208DF82E0000208DF8D8
:1035A0002F008DF830A007208DF8310000208DF815
:1035B000320002208DF8330084208DF83400002082
:1035C0008DF8350004208DF8360000208DF8370086
:1035D0000C210BA8FFF718FF83460BF0FF008DF8B6
:1035E00038004FEA1B208DF839000E210BA8FFF799
:1035F000CFFE04A8FFF7F3FE9DF819009DF81A10FE
:1036000040EA01209DF81B1040EA01409DF81C1083
:1036100040EA0164B4F5006F1ED3A4F5006040F6E3
:10362000FF71B0FBF1F201FB1208404603F0FDFC14
:10363000074603F056FD0022624BCDE9000103F07E
:103640000AFC0022604BCDE9020103F076FC05463E
:1036500003F08AFD81461EE0C4F5006040F6FF716C
:10366000B0FBF1F201FB1200009003F0DEFC80F0F1
:103670000040019003F035FD07460022514B03F056
:10368000EAFB05460022504B03F057FCCDE902014E
:1036900003F06AFD814648460FB0BDE8F08F7FB564
:1036A00004460D460026FF208DF800008DF801002D
:1036B000FD208DF8020000208DF803008DF80440F5
:1036C00006208DF8050000208DF8060003208DF8F7
:1036D000070040208DF8080000208DF809008DF8C3
:1036E0000A500B216846FFF78FFE0646F0B28DF8B0
:1036F0000B00300A8DF80C000D216846FFF748FEDC
:103700007FBD70B588B0054600240026FF208DF8E7
:1037100004008DF80500FD208DF8060000208DF8CE
:103720000700FE208DF8080013208DF80900002006
:103730008DF80A0083208DF80B0040208DF80C00D6
:1037400000208DF80D0001208DF80E0000208DF86E
:103750000F0000BF0BE0601CC1B260000C3001AA7A
:10376000115460000D3001A90D54601CC4B2062C28
:10377000F1DB182101A8FFF747FE0646F0B28DF8ED
:103780001C00300A8DF81D001A2101A8FFF700FE69
:1037900008B070BD05010020001401400044004045
:1037A000DC150020948900086572726F72203D203C
:1037B000256420CEC2B6C8203D2025640D0A000035
:1037C0000000B4430080764000FEAF407FB5044661
:1037D0000D460026FF208DF800008DF80100FD2029
:1037E0008DF8020000208DF803008DF804400620BB
:1037F0008DF8050000208DF8060003208DF80700E5
:1038000007208DF8080000208DF809008DF80A5077
:103810000B216846FFF7F8FD0646F0B28DF80B0065
:10382000300A8DF80C000D216846FFF7B1FD7FBD11
:103830007FB504460D460026FF208DF800008DF868
:103840000100FD208DF8020000208DF803008DF8A6
:10385000044006208DF8050000208DF806000320A6
:103860008DF8070008208DF8080000208DF8090069
:103870008DF80A500B216846FFF7C6FD0646F0B2E8
:103880008DF80B00300A8DF80C000D216846FFF70B
:103890007FFD7FBD70B588B0054600240026FF205F
:1038A0008DF804008DF80500FD208DF8060000203D
:1038B0008DF80700FE208DF8080013208DF8090010
:1038C00000208DF80A0083208DF80B0008208DF869
:1038D0000C0000208DF80D0001208DF80E00002056
:1038E0008DF80F0000BF0BE0601CC1B260000C300F
:1038F00001AA115460000D3001A90D54601CC4B21E
:10390000062CF1DB182101A8FFF77EFD0646F0B278
:103910008DF81C00300A8DF81D001A2101A8FFF750
:1039200037FD08B070BD7FB504460D460026FF2068
:103930008DF800008DF80100FD208DF802000020B8
:103940008DF803008DF8044006208DF80500002056
:103950008DF8060003208DF8070041208DF808003F
:1039600000208DF809008DF80A500B216846FFF7FA
:103970004BFD0646F0B28DF80B00300A8DF80C00B6
:103980000D216846FFF704FD7FBD7FB504460D4657
:10399000002600212046FFF782FEFF208DF8000060
:1039A0008DF80100FD208DF8020000208DF8030045
:1039B0008DF8044006208DF8050000208DF80600E3
:1039C00003208DF807000B208DF8080000208DF8EB
:1039D00009008DF80A500B216846FFF715FD0646D1
:1039E000F0B28DF80B00300A8DF80C000D216846FE
:1039F000FFF7CEFC7FBD10B5044601212046FFF73E
:103A0000C4FF10BD70B588B0054600240026002014
:103A1000FFF777FEFF208DF804008DF80500FD20EC
:103A20008DF8060000208DF80700FE208DF80800B4
:103A300013208DF8090000208DF80A0083208DF8EE
:103A40000B000B208DF80C0000208DF80D000120DC
:103A50008DF80E0000208DF80F0000BF0BE0601CF9
:103A6000C1B260000C3001AA115460000D3001A9F0
:103A70000D54601CC4B2062CF1DB182101A8FFF71D
:103A8000C3FC0646F0B28DF81C00300A8DF81D000C
:103A90001A2101A8FFF77CFC08B070BD10B5012009
:103AA000FFF7B0FF10BD10B5044603212046FFF715
:103AB0006CFF10BD10B50320FFF7A4FF10BD2DE96A
:103AC000F0438BB004460025FF208DF81C008DF8D4
:103AD0001D00FD208DF81E0000208DF81F008DF8C0
:103AE000204007208DF8210000208DF822000220C0
:103AF0008DF8230080208DF8240000208DF825000B
:103B000004208DF8260000208DF827000C2107A83E
:103B1000FFF77AFC0546E8B28DF82800280A8DF8F0
:103B200029000E2107A8FFF733FC6846FFF757FC72
:103B30009DF809009DF80A1040EA01209DF80B103D
:103B400040EA01409DF80C1040EA0169484603F044
:103B500063FA0646304603F0C4FA07460B469DF862
:103B600008103A46F6A003F0F9FC30460BB0BDE869
:103B7000F0832DE9FF4105460E460027F749304600
:103B800003F018FB01D2F54E05E0F549304603F08D
:103B900007FB00D2F24E304603F05DFA0446FF20E8
:103BA0008DF800008DF80100FD208DF80200002046
:103BB0008DF803008DF8045009208DF805000020D1
:103BC0008DF8060003208DF8070068208DF80800A6
:103BD00000208DF80900E0B28DF80A00200A8DF867
:103BE0000B00200C8DF80C00200E8DF80D000E211E
:103BF0006846FFF709FC0746F8B28DF80E00380A50
:103C00008DF80F0010216846FFF7C2FBBDE8FF8169
:103C1000F0B58BB0074600240026D049384603F0A3
:103C2000C9FA01D2CD4F05E0CD49384603F0B8FAC4
:103C300000D2CB4F384603F00EFA0546384603F063
:103C40000AFA0546FF208DF800008DF80100FD20DE
:103C50008DF8020000208DF80300FE208DF804008E
:103C600025208DF8050000208DF8060083208DF8B2
:103C7000070068208DF8080000208DF80900042056
:103C80008DF80A0000208DF80B00002422E0601C53
:103C9000C1B204EB84000C300DF80010E9B204EB63
:103CA00084000D300DF80010C5F3072104EB8400EB
:103CB0000E300DF80010C5F3074104EB84000F30FF
:103CC0000DF80010290E04EB840010300DF80010E0
:103CD000601CC4B2062CDADB2A216846FFF794FB8D
:103CE0000646F0B28DF82A00300A8DF82B002C2100
:103CF0006846FFF74DFB0BB0F0BD70B592B00546BE
:103D00000024002600BF1BE055F82400934903F06F
:103D100051FA03D2914845F8240008E055F82400F0
:103D20008F4903F03DFA02D28D4845F8240055F83A
:103D3000240003F090F901A941F82400601CC4B2EA
:103D4000062CE1DBFF208DF81C008DF81D00FD2006
:103D50008DF81E0000208DF81F00FE208DF8200039
:103D600025208DF8210000208DF8220083208DF879
:103D7000230068208DF8240000208DF82500042001
:103D80008DF8260000208DF82700002429E0601C13
:103D9000C1B204EB84000C3007AA115401A810F83A
:103DA000241004EB84000D30115401A830F82400D5
:103DB000C0F3072104EB84000E30115401A850F821
:103DC0002400C0F3074104EB84000F30115401A814
:103DD00050F82400010E04EB840010301154601CD4
:103DE000C4B2062CD3DB2A2107A8FFF70DFB064639
:103DF000F0B28DF84600300A8DF847002C2107A854
:103E0000FFF7C6FA12B070BD2DE9F04F8FB006462D
:103E10000024A1465349304603F0CCF901D2514E5B
:103E200005E05149304603F0BBF900D24E4E002167
:103E3000304603F0B5F916D286F0004A504603F03A
:103E400050F907460022494B03F077F80022484B0F
:103E5000CDE9000102F0FFFFCDE9020103F028F9EE
:103E6000C0F5006512E0304603F03BF9074600223A
:103E70003E4B03F062F8824600223D4B02F0EBFF1E
:103E8000CDE9020103F014F900F50065FF208DF87B
:103E900010008DF81100FD208DF8120000208DF823
:103EA0001300FE208DF8140025208DF81500002049
:103EB0008DF8160083208DF8170074208DF81800F7
:103EC00000208DF8190004208DF81A0000208DF8CC
:103ED0001B0000241DE0601CC1B204EB84000C3008
:103EE00004AA115404EB84000D301554C5F30721C6
:103EF00004EB84000E301154C5F3074104EB840039
:103F00000F301154290E04EB840010301154601C42
:103F1000C4B2062CDFDB2A2104A8FFF775FA81461C
:103F200009F0FF008DF83A004FEA19208DF83B00A8
:103F30002C2104A8FFF72CFA0FB0BDE8F08F000089
:103F40006572726F72203D20256420CBD9B6C820DF
:103F50003D20252E32660D0A0000000000C07F447F
:103F600000C07FC400003443000034C300807640AA
:103F700000FEAF402DE9F04794B081460024A246F0
:103F800000BF29E059F82400FB4903F013F903D2DC
:103F9000F94849F8240008E059F82400002103F00A
:103FA000FFF802D2002049F8240059F8240003F059
:103FB00098F807460022F14B02F0BFFF05460022A9
:103FC000EF4B02F048FFCDE9000103F071F802A9C0
:103FD00041F82400601CC4B2062CD3DBFF208DF80E
:103FE00020008DF82100FD208DF8220000208DF8A2
:103FF0002300FE208DF8240025208DF825000020C8
:104000008DF8260083208DF8270074208DF8280075
:1040100000208DF8290004208DF82A0000208DF85A
:104020002B00002429E0601CC1B204EB84000C309A
:1040300008AA115402A810F8241004EB84000D30D3
:10404000115402A830F82400C0F3072104EB8400C7
:104050000E30115402A850F82400C0F3074104EBBD
:1040600084000F30115402A850F82400010E04EB14
:10407000840010301154601CC4B2062CD3DB2A21FA
:1040800008A8FFF7C1F982460AF0FF008DF84A0040
:104090004FEA1A208DF84B002C2108A8FFF778F979
:1040A00014B0BDE8F0877FB505460C460026FF201A
:1040B0008DF800008DF80100FD208DF80200002031
:1040C0008DF803008DF8045009208DF805000020BC
:1040D0008DF8060003208DF807002C208DF80800CD
:1040E00000208DF80900E0B28DF80A00200A8DF852
:1040F0000B00200C8DF80C00200E8DF80D000E2109
:104100006846FFF781F90646F0B28DF80E00300AD6
:104110008DF80F0010216846FFF73AF97FBDF0B522
:1041200085B006460C4615460027FF208DF8000096
:104130008DF80100FD208DF8020000208DF80300AD
:104140008DF804600D208DF8050000208DF8060024
:1041500003208DF8070030208DF8080000208DF82E
:104160000900E8B28DF80A00280A8DF80B00280C27
:104170008DF80C00280E8DF80D00E0B28DF80E00C1
:10418000200A8DF80F00200C8DF81000200E8DF8FD
:10419000110012216846FFF737F90746F8B28DF88B
:1041A0001200380A8DF8130014216846FFF7F0F862
:1041B00005B0F0BD30B58BB004460025FF208DF86A
:1041C0001C008DF81D00FD208DF81E0000208DF8CC
:1041D0001F008DF8204007208DF8210000208DF869
:1041E000220002208DF8230046208DF824000020B4
:1041F0008DF8250001208DF8260000208DF827007D
:104200000C2107A8FFF700F90546E8B28DF8280051
:10421000280A8DF829000E2107A8FFF7B9F868468B
:10422000FFF7DDF89DF809209DF8081055A003F070
:1042300095F99DF809000BB030BD3EB50446002548
:10424000FF208DF800008DF80100FD208DF80200A0
:1042500000208DF803008DF8044003208DF8050040
:1042600000208DF8060008208DF807000821684618
:10427000FFF7CAF80546E8B28DF80800280A8DF85D
:1042800009000A216846FFF783F83EBD30B58BB0C0
:1042900004460025FF208DF81C008DF81D00FD2030
:1042A0008DF81E0000208DF81F008DF8204007209B
:1042B0008DF8210000208DF8220002208DF82300C7
:1042C0000B208DF8240000208DF8250001208DF8AA
:1042D000260000208DF827000C2107A8FFF794F88E
:1042E0000546E8B28DF82800280A8DF829000E212D
:1042F00007A8FFF74DF86846FFF771F89DF8092009
:104300009DF8081025A003F029F99DF809000BB0CD
:1043100030BD7FB504460D460026FF208DF8000015
:104320008DF80100FD208DF8020000208DF80300BB
:104330008DF8044006208DF8050000208DF8060059
:1043400003208DF807001F208DF8080000208DF84D
:1043500009008DF80A500B216846FFF755F806460C
:10436000F0B28DF80B00300A8DF80C000D21684674
:10437000FFF70EF87FBD00000000B44300807640D8
:1043800000FEAF406572726F72203D2025642045AB
:1043900052524F52203D2025640D0A006572726F03
:1043A00072203D20256420C4A3CABD203D20256481
:1043B0000D0A000010B5044600212046FFF7E5FA7B
:1043C00010BD10B50020FFF71DFB10BD7FB50546E1
:1043D0000C460026FF208DF800008DF80100FD201E
:1043E0008DF8020000208DF803008DF8045007209E
:1043F0008DF8050000208DF8060003208DF80700D9
:1044000066208DF8080000208DF80900E0B28DF8D4
:104410000A00200A8DF80B000C216846FEF7F4FF15
:104420000646F0B28DF80C00300A8DF80D000E2112
:104430006846FEF7ADFF7FBD70B588B00546002425
:104440000026FF208DF800008DF80100FD208DF87A
:10445000020000208DF80300FE208DF804001920D2
:104460008DF8050000208DF8060083208DF80700E8
:1044700066208DF8080000208DF8090002208DF8D4
:104480000A0000208DF80B0000BF14E0601CC1B2D0
:1044900004EB44000C300DF80010E9B204EB4400CA
:1044A0000D300DF80010290A04EB44000E300DF811
:1044B0000010601CC4B2062CE8DB1E216846FEF723
:1044C000A3FF0646F0B28DF81E00300A8DF81F00DB
:1044D00020216846FEF75CFF08B070BD7FB5054639
:1044E0000C460026FF208DF800008DF80100FD200D
:1044F0008DF8020000208DF803008DF8045007208D
:104500008DF8050000208DF8060003208DF80700C7
:1045100026208DF8080000208DF80900E0B28DF803
:104520000A00200A8DF80B000C216846FEF76CFF8C
:104530000646F0B28DF80C00300A8DF80D000E2101
:104540006846FEF725FF7FBD70B58CB00446002598
:104550000026FF208DF820008DF82100FD208DF829
:10456000220000208DF823008DF8244007208DF8CC
:10457000250000208DF8260002208DF827007E20DF
:104580008DF8280000208DF8290002208DF82A00DF
:1045900000208DF82B000C2108A8FEF735FF0546FA
:1045A000E8B28DF82C00280A8DF82D000E2108A8FD
:1045B000FEF7EEFE01A8FEF712FF9DF80D009DF834
:1045C0000E1040EA01269DF80C103246FEA002F0C3
:1045D000C5FF30460CB070BD7FB504460D460026C1
:1045E000FF208DF800008DF80100FD208DF80200FD
:1045F00000208DF803008DF8044006208DF805009A
:1046000000208DF8060003208DF8070009208DF8A2
:10461000080000208DF809008DF80A500B2168462B
:10462000FEF7F2FE0646F0B28DF80B00300A8DF868
:104630000C000D216846FEF7ABFE7FBD2DE9F04F63
:10464000A7B081464FF0000AFF208DF888008DF852
:104650008900FD208DF88A0000208DF88B00FE2057
:104660008DF88C000D208DF88D0000208DF88E00C7
:1046700082208DF88F0084208DF8900000208DF826
:10468000910004208DF8920000208DF89300002402
:1046900006E0601CC1B20B3022AA1154601CC4B2E7
:1046A000062CF6DB122122A8FEF7AEFE82460AF0A7
:1046B000FF008DF89A004FEA1A208DF89B00142114
:1046C00022A8FEF765FE4FF4FA70FEF700FC0AA878
:1046D000FEF785FE002467E0C4EB041009300AA948
:1046E000095CC4EB04100A300AAA105C41EA0021FC
:1046F000C4EB04100B30105C41EA0041C4EB041021
:104700000C30105C41EA006004A941F8240004A8C0
:1047100050F82400B0F5006F21D304A850F824000D
:10472000A0F5006040F6FF71B0FBF1F201FB120B47
:10473000584602F07AFC019002F0D3FC0022A84B0C
:10474000CDE9020102F087FB05460022A54B02F0ED
:10475000F4FB074602F008FD49F8240022E004A813
:1047600050F82400C0F5006040F6FF71B0FBF1F294
:1047700001FB1200019002F058FC80F0004B5846FB
:1047800002F0AFFC07460022954B02F064FB0546A1
:104790000022944B02F0D1FBCDE9020102F0E4FCCF
:1047A00049F82400601CC4B2062C95DB27B0BDE894
:1047B000F08F70B5A4B005460026FF208DF87C0070
:1047C0008DF87D00FD208DF87E0000208DF87F00A3
:1047D000FE208DF880000D208DF8810000208DF8DE
:1047E000820082208DF8830080208DF884000020D4
:1047F0008DF8850004208DF8860000208DF8870054
:10480000002406E0601CC1B20B301FAA1154601CCA
:10481000C4B2062CF6DB12211FA8FEF7F5FD0646F2
:10482000F0B28DF88E00300A8DF88F0014211FA889
:10483000FEF7AEFD4FF4FA70FEF749FB07A8FEF74E
:10484000CEFD002422E0C4EB0410093007A9095C66
:10485000C4EB04100A3007AA105C41EA0021C4EB43
:1048600004100B30105C41EA0041C4EB04100C3022
:10487000105C41EA006001A941F8240051F82400CD
:1048800002F0CAFB45F82400601CC4B2062CDADB37
:1048900024B070BD2DE9F04F9DB081464FF0000A65
:1048A00000244CE059F824004F4902F083FC03D265
:1048B0004D4849F8240008E059F824004B4902F01B
:1048C0006FFC02D2494849F8240059F8240000211D
:1048D00002F066FC1AD259F8240080F0004B5846CA
:1048E00002F0FFFB074600223D4B02F026FB054687
:1048F00000223C4B02F0AFFACDE9000102F0D8FBF8
:10490000C0F5006002A941F8240016E059F824001F
:1049100002F0E7FB05460022314B02F00EFB0022BD
:10492000304BCDE9000102F096FA074602F0C0FBD9
:1049300000F5006002A941F82400601CC4B2062CF6
:10494000B0DB59F824002A4902F034FC03D228488D
:1049500049F8240008E059F82400264902F020FC18
:1049600002D2244849F8240059F8240002F073FBCD
:1049700002A941F82400FF208DF824008DF82500BD
:10498000FD208DF8260000208DF82700FE208DF8F0
:10499000280042208DF8290000208DF82A0093205D
:1049A0008DF82B00002456E0601CC1B204EBC4005B
:1049B000083009AA1154742104EBC40009301154C1
:1049C000002104EBC40017E06572726F72203D2075
:1049D000256420CBD9B6C8203D2025640D0A0000EF
:1049E0000080764000FEAF4000003443000034C336
:1049F00000C07F4400C07FC40A301154042104EB7E
:104A0000C4000B301154002104EBC4000C301154CD
:104A100002A810F8241004EBC4000D30115402A8B1
:104A200030F82400C0F3072104EBC4000E30115409
:104A300002A850F82400C0F3074104EBC4000F3073
:104A4000115402A850F82400010E04EBC4001030E9
:104A50001154601CC4B2062CA6DB601CC1B204EB6E
:104A6000C400083009AA1154682104EBC4000930BD
:104A70001154002104EBC4000A301154042104EB4A
:104A8000C4000B301154002104EBC4000C3011544D
:104A900002A810F8241004EBC4000D30115402A831
:104AA00030F82400C0F3072104EBC4000E30115489
:104AB00002A850F82400C0F3074104EBC4000F30F3
:104AC000115402A850F82400010E04EBC400103069
:104AD0001154472109A8FEF797FC82460AF0FF000F
:104AE0008DF86B004FEA1A208DF86C00492109A857
:104AF000FEF74EFC1DB0BDE8F08F2DE9F04FB3B0CE
:104B000081464FF0000AFF208DF89C008DF89D0033
:104B1000FD208DF89E0000208DF89F00FE208DF86E
:104B2000A00026208DF8A10000208DF8A200922080
:104B30008DF8A30000241CE0601CC1B204EB8400CB
:104B4000083027AA1154842104EB84000930115441
:104B5000002104EB84000A301154042104EB84008A
:104B60000B301154002104EB84000C301154601CF4
:104B7000C4B2062CE0DB601CC1B204EB8400083038
:104B800027AA1154802104EB84000930115400211C
:104B900004EB84000A301154042104EB84000B3030
:104BA0001154002104EB84000C3011542B2127A850
:104BB000FEF72AFC82460AF0FF008DF8C7004FEA94
:104BC0001A208DF8C8002D2127A8FEF7E1FB4FF42D
:104BD0001670FEF77CF90BA8FEF701FC002467E0D5
:104BE000C4EB041009300BA9095CC4EB04100A30B3
:104BF0000BAA105C41EA0021C4EB04100B30105CDE
:104C000041EA0041C4EB04100C30105C41EA006042
:104C100004A941F8240004A850F82400B0F5006F5E
:104C200021DB04A850F82400A0F5006040F6FF71D5
:104C300090FBF1F201FB120B584602F0EDF90190E6
:104C400002F04FFA0022FA4BCDE9020102F003F91B
:104C500005460022F74B02F070F9074602F084FA8D
:104C600049F8240022E004A850F82400C0F50060B0
:104C700040F6FF7190FBF1F201FB1200019002F08F
:104C8000CBF980F0004B584602F02BFA0746002281
:104C9000E74B02F0E0F805460022E64B02F04DF942
:104CA000CDE9020102F060FA49F82400601CC4B2A8
:104CB000062C95DBC4EB041009300BA9095CC4EB8E
:104CC00004100A300BAA105C41EA0021C4EB041066
:104CD0000B30105C41EA0041C4EB04100C30105C56
:104CE00041EA006004A941F8240051F8240002F0D0
:104CF00093F949F8240033B0BDE8F08F2DE9FF5F48
:104D000081468A464FF0000B504602F0EAF907460A
:104D1000C94ACA4B02F011F9054602F0C9F9044626
:104D2000FF208DF800008DF80100FD208DF80200B5
:104D300000208DF803008DF8049009208DF80500FF
:104D400000208DF8060003208DF807006C208DF8F8
:104D5000080000208DF80900E0B28DF80A00200A52
:104D60008DF80B00200C8DF80C00200E8DF80D0036
:104D70000E216846FEF748FB83460BF0FF008DF8D6
:104D80000E004FEA1B208DF80F0010216846FEF739
:104D9000FFFABDE8FF9F2DE9FF5F81468A464FF08D
:104DA000000B504602F09DF90746A54AA54B02F0BC
:104DB000C4F8054602F07CF90446FF208DF8000097
:104DC0008DF80100FD208DF8020000208DF8030011
:104DD0008DF8049009208DF8050000208DF806005C
:104DE00003208DF8070070208DF8080000208DF852
:104DF0000900E0B28DF80A00200A8DF80B00200CA3
:104E00008DF80C00200E8DF80D000E216846FEF77F
:104E1000FBFA83460BF0FF008DF80E004FEA1B20D3
:104E20008DF80F0010216846FEF7B2FABDE8FF9F2B
:104E30002DE9F04792B081460024A24600BF10E061
:104E400059F8240002F04DF907467B4A7B4B02F0EB
:104E500074F8054602F02CF901A941F82400601C01
:104E6000C4B2062CECDBFF208DF81C008DF81D0071
:104E7000FD208DF81E0000208DF81F00FE208DF80B
:104E8000200025208DF8210000208DF822008320AD
:104E90008DF823006C208DF8240000208DF825006B
:104EA00004208DF8260000208DF82700002429E03A
:104EB000601CC1B204EB84000C3007AA115401A895
:104EC00010F8241004EB84000D30115401A830F8C0
:104ED0002400C0F3072104EB84000E30115401A814
:104EE00050F82400C0F3074104EB84000F30115444
:104EF00001A850F82400010E04EB84001030115476
:104F0000601CC4B2062CD3DB2A2107A8FEF77CFA6A
:104F100082460AF0FF008DF846004FEA1A208DF80D
:104F200047002C2107A8FEF733FA12B0BDE8F0873E
:104F30002DE9F04792B081460024A24600BF10E060
:104F400059F8240002F0CDF807463D4A3D4B01F0E8
:104F5000F4FF054602F0ACF801A941F82400601CFA
:104F6000C4B2062CECDBFF208DF81C008DF81D0070
:104F7000FD208DF81E0000208DF81F00FE208DF80A
:104F8000200025208DF8210000208DF822008320AC
:104F90008DF8230070208DF8240000208DF8250066
:104FA00004208DF8260000208DF82700002429E039
:104FB000601CC1B204EB84000C3007AA115401A894
:104FC00010F8241004EB84000D30115401A830F8BF
:104FD0002400C0F3072104EB84000E30115401A813
:104FE00050F82400C0F3074104EB84000F30115443
:104FF00001A850F82400010E04EB84001030115475
:10500000601CC4B2062CD3DB2A2107A8FEF7FCF9EA
:1050100082460AF0FF008DF846004FEA1A208DF80C
:1050200047002C2107A8FEF7B3F912B0BDE8F087BE
:105030000080764000FEAF405839B4C876D26A404E
:105040001D5A643BDF4FCD3F2DE9F04F8FB08046B6
:105050000D4691469A464FF0000B504602F041F83B
:10506000FD4AFE4BCDE9020101F067FFCDE90401E5
:1050700002F01EF80646484602F033F8F84AF94BAB
:10508000CDE9020101F059FFCDE9040102F010F869
:105090000746284601F0DFFF049001F0BDFF2946D6
:1050A000059001F0BEFD06900021284602F078F838
:1050B00019D2069880F00040069085F000400390D9
:1050C00001F0C9FF4FF4B47190FBF1F201FB120043
:1050D000049001F0A1FF0590069901F04DFD0546F1
:1050E00085F0004510E0284601F0B5FF4FF4B4719B
:1050F00090FBF1F201FB1200049001F08DFF05908E
:10510000069901F039FD0546284601F0EAFF002224
:10511000D54BCDE9000101F010FF0022D34BCDE9C2
:10512000020101F098FECDE9040101F0C1FF00F594
:105130000064FF208DF81C008DF81D00FD208DF807
:105140001E0000208DF81F008DF8208011208DF8A2
:10515000210000208DF8220003208DF823006C2010
:105160008DF8240000208DF82500F8B28DF8260077
:10517000380A8DF82700380C8DF82800380E8DF885
:105180002900F0B28DF82A00300A8DF82B00300C7F
:105190008DF82C00300E8DF82D00E0B28DF82E0029
:1051A000200A8DF82F00200C8DF83000200E8DF88D
:1051B0003100162107A8FEF727F983460BF0FF0000
:1051C0008DF832004FEA1B208DF83300182107A814
:1051D000FEF7DEF80FB0BDE8F08F2DE9F04F87B095
:1051E0000646894692464FF0000B504601F079FF83
:1051F00007469B4A9B4B01F0A0FECDE9000101F060
:1052000057FF05469A49484601F0D4FF02D2DFF81D
:10521000609206E09749484601F0C2FF01D2DFF8EC
:105220005492484601F030FF0446FF208DF80800F4
:105230008DF80900FD208DF80A0000208DF80B0084
:105240008DF80C600D208DF80D0000208DF80E00FB
:1052500003208DF80F0068208DF8100000208DF8D5
:105260001100E0B28DF81200200A8DF81300200C16
:105270008DF81400200E8DF81500E8B28DF8160098
:10528000280A8DF81700280C8DF81800280E8DF8C4
:105290001900122102A8FEF7B7F883460BF0FF00B1
:1052A0008DF81A004FEA1B208DF81B00142102A86C
:1052B000FEF76EF807B0BDE8F08F2DE9F04FADB006
:1052C00005460E4691460024A24600BF6EE055F802
:1052D0002400694901F06EFF03D2674845F82400B5
:1052E00008E055F82400654901F05AFF02D26348EE
:1052F00045F8240055F82400002101F051FF1BD28D
:1053000055F8240080F0004B584601F0EAFE0746AD
:105310000022554B01F011FE0022544BCDE9000153
:1053200001F099FDCDE9020101F0C2FEC0F5006077
:1053300010A941F8240017E055F8240001F0D1FE2F
:105340000022494BCDE9000101F0F7FD074600229C
:10535000464B01F080FDCDE9020101F0A9FE00F508
:10536000006010A941F8240059F8240001F0B9FEAA
:10537000394A3A4BCDE9020101F0DFFD074601F061
:1053800097FE04A941F8240056F8240001F0A9FE74
:105390000746334A334B01F0D0FDCDE9020101F05D
:1053A00087FE0AA941F82400601CC4B2062C8EDBDB
:1053B000FF208DF858008DF85900FD208DF85A0017
:1053C00000208DF85B00FE208DF85C0055208DF8E4
:1053D0005D0000208DF85E0083208DF85F006C205A
:1053E0008DF8600000208DF861000C208DF86200BF
:1053F00000208DF8630000249AE0601CC1B204EB29
:10540000840000EBC4000C3016AA11540AA810F84E
:10541000241004EB840000EBC4000D3011540AA8E2
:1054200030F82400C0F3072104EB840000EBC40033
:105430000E3011540AA850F82400C0F3074104EBC1
:10544000840000EBC4000F3011540AA850F8240067
:10545000010E04EB840013E01D5A643BDF4FCD3F87
:105460005839B4C876D26A400080764000FEAF401A
:1054700000C07F4400C07FC400003443000034C338
:1054800000EBC4001030115404A810F8241004EBF1
:10549000840000EBC4001130115404A830F824003B
:1054A000C0F3072104EB840000EBC4001230115458
:1054B00004A850F82400C0F3074104EB840000EB7B
:1054C000C4001330115404A850F82400010E04EB5A
:1054D000840000EBC4001430115410A810F82410FC
:1054E00004EB840000EBC4001530115410A830F810
:1054F0002400C0F3072104EB840000EBC400163045
:10550000115410A850F82400C0F3074104EB8400A4
:1055100000EBC4001730115410A850F82400010EFD
:1055200004EB840000EBC40018301154601CC4B2BA
:10553000062CFFF662AF5A2116A8FDF765FF8246DA
:105540000AF0FF008DF8B2004FEA1A208DF8B30080
:105550005C2116A8FDF71CFF2DB0BDE8F08F2DE9EA
:10556000F04F9DB081468A460024A34600BF29E043
:1055700059F82400FE4901F01DFE03D2FC4849F809
:10558000240008E059F82400FA4901F009FE02D28B
:10559000F84849F8240059F8240001F075FD06A9DF
:1055A00041F824005AF8240001F09BFD0746F24A16
:1055B000F24B01F0C2FC054601F07AFD4DF82400E3
:1055C000601CC4B2062CD3DBFF208DF830008DF8B0
:1055D0003100FD208DF8320000208DF83300FE20D0
:1055E0008DF834003D208DF8350000208DF8360010
:1055F00083208DF8370068208DF8380000208DF862
:1056000039000C208DF83A0000208DF83B00002472
:1056100058E0601CC1B204EB840000EBC4000C3005
:105620000CAA115406A810F8241004EB840000EB17
:10563000C4000D30115406A830F82400C0F307212F
:1056400004EB840000EBC4000E30115406A850F89F
:105650002400C0F3074104EB840000EBC4000F30CA
:10566000115406A850F82400010E04EB840000EB4E
:10567000C400103011541DF8241004EB840000EB1A
:10568000C400113011543DF82400C0F3072104EB8D
:10569000840000EBC400123011545DF82400C0F304
:1056A000074104EB840000EBC400133011545DF893
:1056B0002400010E04EB840000EBC40014301154EC
:1056C000601CC4B2062CA4DB42210CA8FDF79CFE92
:1056D00083460BF0FF008DF872004FEA1B208DF817
:1056E000730044210CA8FDF753FE1DB0BDE8F08FF8
:1056F0002DE9F04FB9B005460E4691464FF0000A2D
:1057000000246EE055F824009D4901F053FD03D2BA
:105710009B4845F8240008E055F82400994901F019
:105720003FFD02D2974845F8240055F82400002197
:1057300001F036FD1BD255F8240080F0004B58468E
:1057400001F0CFFC074600228F4B01F0F6FB002250
:105750008E4BCDE9000101F07EFBCDE9020101F0A5
:10576000A7FCC0F5006011A941F8240017E055F826
:10577000240001F0B6FC0022834BCDE9000101F0CA
:10578000DCFB0022814BCDE9020101F064FB0746FE
:1057900001F08EFC00F5006011A941F8240059F8D1
:1057A000240001F09EFC0746794A7A4B01F0C5FBC4
:1057B000CDE9020101F07CFC04A941F8240056F86F
:1057C000240001F08EFC07466B4A6C4B01F0B5FBE0
:1057D000CDE9020101F06CFC0AA941F82400601C2B
:1057E000C4B2062C8EDB55F82400614901F0E2FCBE
:1057F00003D25F4845F8240008E055F824005D49CD
:1058000001F0CEFC02D25B4845F8240055F8240094
:1058100001F03AFC11A941F8240055F8240001F0E8
:1058200060FC0022584BCDE9000101F086FB0746E1
:105830000022564B01F00FFBCDE9020101F038FCCC
:105840000AA941F82400FF208DF860008DF861005E
:10585000FD208DF8620000208DF86300FE208DF899
:10586000640076208DF8650000208DF86600932096
:105870008DF86700002495E0601CC1B204EB0410B1
:10588000083018AA11546C2104EB0410093011548B
:10589000002104EB04100A3011540C2104EB041015
:1058A0000B301154002104EB04100C3011540AA8E1
:1058B00010F8241004EB04100D3011540AA830F82D
:1058C0002400C0F3072104EB04100E3011540AA881
:1058D00050F82400C0F3074104EB04100F301154BA
:1058E0000AA850F82400000E04EB041110315054A3
:1058F00004A810F8241004EB04101130115404A86B
:1059000030F82400C0F3072104EB041012301154C6
:1059100004A850F82400C0F3074104EB041013302E
:10592000115404A850F82400000E04EB04111431A3
:10593000505411A810F8241004EB04101530115421
:1059400011A830F82400C0F3072104EB041016302E
:10595000115411A850F82400C0F3074104EB0410BF
:105960001730115411A850F82400000E14E0000064
:1059700000C07F4400C07FC45839B4C876D26A40A2
:1059800000003443000034C30080764000FEAF4086
:105990001D5A643BDF4FCD3F04EB041118315054C6
:1059A000601CC4B2062CFFF667AF601CC1B204EBEA
:1059B0000410083018AA1154682104EB04100930AF
:1059C0001154002104EB04100A301154082104EB97
:1059D00004100B301154002104EB04100C3011544E
:1059E00011A810F8241004EB04100D30115411A864
:1059F00030F82400C0F3072104EB04100E301154DA
:105A000011A850F82400C0F3074104EB04100F3034
:105A1000115411A850F82400000E04EB04111031A9
:105A200050540AA810F8241004EB0410113011543B
:105A30000AA830F82400C0F3072104EB0410123048
:105A400011540AA850F82400C0F3074104EB0410D5
:105A5000133011540AA850F82400000E04EB04116E
:105A6000143150547B2118A8FDF7CEFC82460AF071
:105A7000FF008DF8DB004FEA1A208DF8DC007D2155
:105A800018A8FDF785FC39B0BDE8F08FA34A0A409D
:105A90000243A34B1A6070470146072323EA010221
:105AA00012029F4B1B1D18684FF6FF0318409D4BB9
:105AB000184310439A4B1B1D186070472DE9F041A5
:105AC0000746884614461D462846FFF7E5FFC5F100
:105AD000040007FA00F60F20284100EA08000643F8
